{
  "_format": "hh-sol-artifact-1",
  "contractName": "CombinedDex",
  "sourceName": "contracts/CombinedDex.sol",
  "abi": [
    {
      "inputs": [
        {
          "internalType": "string",
          "name": "_assetTokenName",
          "type": "string"
        },
        {
          "internalType": "string",
          "name": "_assetTokenSymbol",
          "type": "string"
        },
        {
          "internalType": "address",
          "name": "_liquidityToken",
          "type": "address"
        },
        {
          "internalType": "address payable",
          "name": "_platformFeeAddress",
          "type": "address"
        }
      ],
      "stateMutability": "nonpayable",
      "type": "constructor"
    },
    {
      "anonymous": false,
      "inputs": [
        {
          "indexed": true,
          "internalType": "address",
          "name": "nftContract",
          "type": "address"
        },
        {
          "indexed": true,
          "internalType": "uint256",
          "name": "tokenId",
          "type": "uint256"
        },
        {
          "indexed": true,
          "internalType": "address",
          "name": "owner",
          "type": "address"
        }
      ],
      "name": "NFTLocked",
      "type": "event"
    },
    {
      "anonymous": false,
      "inputs": [
        {
          "indexed": true,
          "internalType": "address",
          "name": "nftContract",
          "type": "address"
        },
        {
          "indexed": true,
          "internalType": "uint256",
          "name": "tokenId",
          "type": "uint256"
        },
        {
          "indexed": true,
          "internalType": "address",
          "name": "owner",
          "type": "address"
        }
      ],
      "name": "NFTUnlocked",
      "type": "event"
    },
    {
      "inputs": [
        {
          "internalType": "uint256",
          "name": "_amount",
          "type": "uint256"
        }
      ],
      "name": "addLiquidity",
      "outputs": [
        {
          "internalType": "uint256",
          "name": "",
          "type": "uint256"
        }
      ],
      "stateMutability": "payable",
      "type": "function"
    },
    {
      "inputs": [],
      "name": "assetToken",
      "outputs": [
        {
          "internalType": "contract AssetToken",
          "name": "",
          "type": "address"
        }
      ],
      "stateMutability": "view",
      "type": "function"
    },
    {
      "inputs": [
        {
          "internalType": "uint256",
          "name": "_main",
          "type": "uint256"
        }
      ],
      "name": "getMainForNativeTokens",
      "outputs": [
        {
          "internalType": "uint256",
          "name": "",
          "type": "uint256"
        }
      ],
      "stateMutability": "view",
      "type": "function"
    },
    {
      "inputs": [
        {
          "internalType": "uint256",
          "name": "_native",
          "type": "uint256"
        }
      ],
      "name": "getNativeForMainTokens",
      "outputs": [
        {
          "internalType": "uint256",
          "name": "",
          "type": "uint256"
        }
      ],
      "stateMutability": "view",
      "type": "function"
    },
    {
      "inputs": [],
      "name": "getTokensInContract",
      "outputs": [
        {
          "internalType": "uint256",
          "name": "",
          "type": "uint256"
        }
      ],
      "stateMutability": "view",
      "type": "function"
    },
    {
      "inputs": [],
      "name": "liquidityToken",
      "outputs": [
        {
          "internalType": "contract LiquidityToken",
          "name": "",
          "type": "address"
        }
      ],
      "stateMutability": "view",
      "type": "function"
    },
    {
      "inputs": [],
      "name": "platformFeeAddress",
      "outputs": [
        {
          "internalType": "address payable",
          "name": "",
          "type": "address"
        }
      ],
      "stateMutability": "view",
      "type": "function"
    },
    {
      "inputs": [
        {
          "internalType": "uint256",
          "name": "_amount",
          "type": "uint256"
        }
      ],
      "name": "removeLiquidity",
      "outputs": [
        {
          "internalType": "uint256",
          "name": "",
          "type": "uint256"
        },
        {
          "internalType": "uint256",
          "name": "",
          "type": "uint256"
        }
      ],
      "stateMutability": "nonpayable",
      "type": "function"
    },
    {
      "inputs": [],
      "name": "swapMainforNative",
      "outputs": [
        {
          "internalType": "uint256",
          "name": "",
          "type": "uint256"
        }
      ],
      "stateMutability": "payable",
      "type": "function"
    },
    {
      "inputs": [
        {
          "internalType": "uint256",
          "name": "_tokenAmount",
          "type": "uint256"
        }
      ],
      "name": "swapNativeForMain",
      "outputs": [
        {
          "internalType": "uint256",
          "name": "",
          "type": "uint256"
        }
      ],
      "stateMutability": "payable",
      "type": "function"
    },
    {
      "inputs": [],
      "name": "unlockNFT",
      "outputs": [],
      "stateMutability": "nonpayable",
      "type": "function"
    },
    {
      "inputs": [
        {
          "internalType": "uint256",
          "name": "_valuation",
          "type": "uint256"
        },
        {
          "internalType": "uint256",
          "name": "_numFractionalTokens",
          "type": "uint256"
        },
        {
          "internalType": "address",
          "name": "_nftCollectionAddress",
          "type": "address"
        },
        {
          "internalType": "uint256",
          "name": "_tokenId",
          "type": "uint256"
        }
      ],
      "name": "uploadNFT",
      "outputs": [
        {
          "internalType": "bool",
          "name": "",
          "type": "bool"
        }
      ],
      "stateMutability": "nonpayable",
      "type": "function"
    }
  ],
  "bytecode": "0x60806040526006805460ff19169055600560085560196009553480156200002557600080fd5b5060405162002612380380620026128339810160408190526200004891620002b4565b83836040516200005890620001c0565b6200006592919062000376565b604051809103906000f08015801562000082573d6000803e3d6000fd5b50600080546001600160a01b0319166001600160a01b0392909216918217905560405163095ea7b360e01b8152306004820152600019602482015263095ea7b3906044016020604051808303816000875af1158015620000e6573d6000803e3d6000fd5b505050506040513d601f19601f820116820180604052508101906200010c9190620003a8565b50600180546001600160a01b0319166001600160a01b03841690811790915560405163095ea7b360e01b8152306004820152600019602482015263095ea7b3906044016020604051808303816000875af11580156200016f573d6000803e3d6000fd5b505050506040513d601f19601f82011682018060405250810190620001959190620003a8565b50600a80546001600160a01b0319166001600160a01b039290921691909117905550620003d3915050565b610fba806200165883390190565b634e487b7160e01b600052604160045260246000fd5b60005b8381101562000201578181015183820152602001620001e7565b50506000910152565b600082601f8301126200021c57600080fd5b81516001600160401b0380821115620002395762000239620001ce565b604051601f8301601f19908116603f01168101908282118183101715620002645762000264620001ce565b816040528381528660208588010111156200027e57600080fd5b62000291846020830160208901620001e4565b9695505050505050565b6001600160a01b0381168114620002b157600080fd5b50565b60008060008060808587031215620002cb57600080fd5b84516001600160401b0380821115620002e357600080fd5b620002f1888389016200020a565b955060208701519150808211156200030857600080fd5b5062000317878288016200020a565b93505060408501516200032a816200029b565b60608601519092506200033d816200029b565b939692955090935050565b6000815180845262000362816020860160208601620001e4565b601f01601f19169290920160200192915050565b6040815260006200038b604083018562000348565b82810360208401526200039f818562000348565b95945050505050565b600060208284031215620003bb57600080fd5b81518015158114620003cc57600080fd5b9392505050565b61127580620003e36000396000f3fe6080604052600436106100a75760003560e01c80636a45e1b1116100645780636a45e1b11461017757806372568f15146101975780639c8f9f23146101b7578063b2e202c8146101ec578063ed14834f146101ff578063f9d2994b1461021f57600080fd5b80631083f761146100ac5780633c2f1806146100e957806343cd8f7e1461010c57806351c6590a1461012c578063599db8bf1461013f57806363cfa9381461016f575b600080fd5b3480156100b857600080fd5b506000546100cc906001600160a01b031681565b6040516001600160a01b0390911681526020015b60405180910390f35b3480156100f557600080fd5b506100fe610236565b6040519081526020016100e0565b34801561011857600080fd5b506001546100cc906001600160a01b031681565b6100fe61013a3660046110d1565b6102a8565b34801561014b57600080fd5b5061015f61015a366004611102565b610707565b60405190151581526020016100e0565b6100fe6109bd565b34801561018357600080fd5b506100fe6101923660046110d1565b610b21565b3480156101a357600080fd5b506100fe6101b23660046110d1565b610b91565b3480156101c357600080fd5b506101d76101d23660046110d1565b610bfa565b604080519283526020830191909152016100e0565b6100fe6101fa3660046110d1565b610dc5565b34801561020b57600080fd5b50600a546100cc906001600160a01b031681565b34801561022b57600080fd5b50610234610f4e565b005b600080546040516370a0823160e01b81523060048201526001600160a01b03909116906370a0823190602401602060405180830381865afa15801561027f573d6000803e3d6000fd5b505050506040513d601f19601f820116820180604052508101906102a39190611141565b905090565b60065460009060ff16151560011461031f5760405162461bcd60e51b815260206004820152602f60248201527f5468697320636f6e747261637420686173206e6f206c6f636b6564204e46542060448201526e18995b1bdb99da5b99c81d1bc81a5d608a1b60648201526084015b60405180910390fd5b6000341161037b5760405162461bcd60e51b815260206004820152602360248201527f4554482076616c7565206d7573742062652067726561746572207468616e207a60448201526265726f60e81b6064820152608401610316565b60004781610387610236565b905080600003610475576000546040516323b872dd60e01b81526001600160a01b03909116906323b872dd906103c590339030908a9060040161115a565b6020604051808303816000875af11580156103e4573d6000803e3d6000fd5b505050506040513d601f19601f82011682018060405250810190610408919061117e565b506001546040516340c10f1960e01b8152336004820152346024820181905294506001600160a01b03909116906340c10f1990604401600060405180830381600087803b15801561045857600080fd5b505af115801561046c573d6000803e3d6000fd5b505050506106fe565b600061048134846111bd565b9050600081116105045760405162461bcd60e51b815260206004820152604260248201527f526573657276656420455448206d75737420626520677265617465722074686160448201527f6e207a65726f206166746572207375627472616374696e67206d73672e76616c606482015261756560f01b608482015260a401610316565b8061050f34846111d6565b61051991906111ed565b86101561058e5760405162461bcd60e51b815260206004820152603c60248201527f416d6f756e74206f6620746f6b656e7320206973206c657373207468616e207460448201527f6865207265717569726564206e756d626572206f6620746f6b656e73000000006064820152608401610316565b6000546040516323b872dd60e01b81526001600160a01b03909116906323b872dd906105c290339030908b9060040161115a565b6020604051808303816000875af11580156105e1573d6000803e3d6000fd5b505050506040513d601f19601f82011682018060405250810190610605919061117e565b50600081600160009054906101000a90046001600160a01b03166001600160a01b03166318160ddd6040518163ffffffff1660e01b8152600401602060405180830381865afa15801561065c573d6000803e3d6000fd5b505050506040513d601f19601f820116820180604052508101906106809190611141565b61068a90346111d6565b61069491906111ed565b6001546040516340c10f1960e01b8152336004820152602481018390529192506001600160a01b0316906340c10f1990604401600060405180830381600087803b1580156106e157600080fd5b505af11580156106f5573d6000803e3d6000fd5b50929650505050505b50909392505050565b60065460009060ff161561076d5760405162461bcd60e51b815260206004820152602760248201527f416c726561647920616e204e4654206173736f636961746564207769746820746044820152660d0d2e640888ab60cb1b6064820152608401610316565b6000851161077a57600080fd5b600a841161078757600080fd5b6040516331a9108f60e11b81526004810183905283906001600160a01b03821690636352211e90602401602060405180830381865afa1580156107ce573d6000803e3d6000fd5b505050506040513d601f19601f820116820180604052508101906107f2919061120f565b6001600160a01b0316336001600160a01b0316146108525760405162461bcd60e51b815260206004820152601c60248201527f206973206e6f7420746865206f776e6572206f6620746865206e6674000000006044820152606401610316565b6040516323b872dd60e01b81526001600160a01b038216906323b872dd906108829033903090889060040161115a565b600060405180830381600087803b15801561089c57600080fd5b505af11580156108b0573d6000803e3d6000fd5b5050604080516080810182526001600160a01b03881680825233602083018190528284018990524260608401819052600280546001600160a01b03199081168517909155600380549091168317905560048a905560055592519194509192508691907f752b2c9518fc8eb87040bfee66a1505abc19b0e25705097035ac1490021631ad90600090a46000546040516340c10f1960e01b8152336004820152602481018890526001600160a01b03909116906340c10f1990604401600060405180830381600087803b15801561098457600080fd5b505af1158015610998573d6000803e3d6000fd5b505050600788905550506006805460ff19166001908117909155915050949350505050565b6000806127106008546009546127106109d691906111bd565b6109e0919061122c565b6109ea90346111d6565b6109f491906111ed565b90506000610a0282476111bd565b90506000610a0e610236565b90506000610a1c848461122c565b610a2683866111d6565b610a3091906111ed565b60005460405163a9059cbb60e01b8152336004820152602481018390529192506001600160a01b03169063a9059cbb906044016020604051808303816000875af1158015610a82573d6000803e3d6000fd5b505050506040513d601f19601f82011682018060405250810190610aa6919061117e565b50600061271060085434610aba91906111d6565b610ac491906111ed565b600a549091506001600160a01b0316610adc57600080fd5b600a546040516001600160a01b039091169082156108fc029083906000818181858888f19350505050158015610b16573d6000803e3d6000fd5b509095945050505050565b60004781610b2d610236565b90506000610b3b858361122c565b610b4586856111d6565b610b4f91906111ed565b90506000612710600854600954612710610b6991906111bd565b610b73919061122c565b610b7d90846111d6565b610b8791906111ed565b9695505050505050565b600080612710600854600954612710610baa91906111bd565b610bb4919061122c565b610bbe90856111d6565b610bc891906111ed565b90506000610bd682476111bd565b90506000610be2610236565b90506000610bf0848461122c565b610b7d83866111d6565b6000804781610c07610236565b90506000600160009054906101000a90046001600160a01b03166001600160a01b03166318160ddd6040518163ffffffff1660e01b8152600401602060405180830381865afa158015610c5e573d6000803e3d6000fd5b505050506040513d601f19601f82011682018060405250810190610c829190611141565b610c8c84886111d6565b610c9691906111ed565b9050600083610ca583856111d6565b610caf91906111ed565b60005460405163a9059cbb60e01b8152336004820152602481018390529192506001600160a01b03169063a9059cbb906044016020604051808303816000875af1158015610d01573d6000803e3d6000fd5b505050506040513d601f19601f82011682018060405250810190610d25919061117e565b50604051339083156108fc029084906000818181858888f19350505050158015610d53573d6000803e3d6000fd5b50600154604051632770a7eb60e21b8152336004820152602481018990526001600160a01b0390911690639dc29fac90604401600060405180830381600087803b158015610da057600080fd5b505af1158015610db4573d6000803e3d6000fd5b509399929850919650505050505050565b60004781610dd1610236565b90506000610ddf858361122c565b610de986856111d6565b610df391906111ed565b6000546040516323b872dd60e01b81529192506001600160a01b0316906323b872dd90610e2890339030908a9060040161115a565b6020604051808303816000875af1158015610e47573d6000803e3d6000fd5b505050506040513d601f19601f82011682018060405250810190610e6b919061117e565b506000612710600854600954612710610e8491906111bd565b610e8e919061122c565b610e9890846111d6565b610ea291906111ed565b604051909150339082156108fc029083906000818181858888f19350505050158015610ed2573d6000803e3d6000fd5b50600061271060085484610ee691906111d6565b610ef091906111ed565b600a549091506001600160a01b0316610f0857600080fd5b600a546040516001600160a01b039091169082156108fc029083906000818181858888f19350505050158015610f42573d6000803e3d6000fd5b50919695505050505050565b60065460ff16610f945760405162461bcd60e51b8152602060048201526011602482015270139195081a5cc81b9bdd081b1bd8dad959607a1b6044820152606401610316565b6003546001600160a01b03163314610ff95760405162461bcd60e51b815260206004820152602260248201527f4f6e6c7920746865206f776e65722063616e20756e6c6f636b2074686973204e604482015261119560f21b6064820152608401610316565b600254600480546040516323b872dd60e01b81526001600160a01b039093169283926323b872dd926110309230923392910161115a565b600060405180830381600087803b15801561104a57600080fd5b505af115801561105e573d6000803e3d6000fd5b50506006805460ff1916905550506004546002546040513392916001600160a01b0316907fc82027111cdc25a13287e45aaad5b7c1b91e77bb72aa2a8cc6eb098f2982248790600090a450600280546001600160a01b031990811690915560038054909116905560006004819055600555565b6000602082840312156110e357600080fd5b5035919050565b6001600160a01b03811681146110ff57600080fd5b50565b6000806000806080858703121561111857600080fd5b84359350602085013592506040850135611131816110ea565b9396929550929360600135925050565b60006020828403121561115357600080fd5b5051919050565b6001600160a01b039384168152919092166020820152604081019190915260600190565b60006020828403121561119057600080fd5b815180151581146111a057600080fd5b9392505050565b634e487b7160e01b600052601160045260246000fd5b818103818111156111d0576111d06111a7565b92915050565b80820281158282048414176111d0576111d06111a7565b60008261120a57634e487b7160e01b600052601260045260246000fd5b500490565b60006020828403121561122157600080fd5b81516111a0816110ea565b808201808211156111d0576111d06111a756fea2646970667358221220af96f3b0ad37d8a8ddb614c22522806db7653a1ff5acdb14a91cf8476baa4ae264736f6c6343000811003360806040523480156200001157600080fd5b5060405162000fba38038062000fba833981016040819052620000349162000193565b818160036200004483826200028c565b5060046200005382826200028c565b505050620000706200006a6200007860201b60201c565b6200007c565b505062000358565b3390565b600580546001600160a01b038381166001600160a01b0319831681179093556040519116919082907f8be0079c531659141344cd1fd0a4f28419497f9722a3daafe3b4186f6b6457e090600090a35050565b634e487b7160e01b600052604160045260246000fd5b600082601f830112620000f657600080fd5b81516001600160401b0380821115620001135762000113620000ce565b604051601f8301601f19908116603f011681019082821181831017156200013e576200013e620000ce565b816040528381526020925086838588010111156200015b57600080fd5b600091505b838210156200017f578582018301518183018401529082019062000160565b600093810190920192909252949350505050565b60008060408385031215620001a757600080fd5b82516001600160401b0380821115620001bf57600080fd5b620001cd86838701620000e4565b93506020850151915080821115620001e457600080fd5b50620001f385828601620000e4565b9150509250929050565b600181811c908216806200021257607f821691505b6020821081036200023357634e487b7160e01b600052602260045260246000fd5b50919050565b601f8211156200028757600081815260208120601f850160051c81016020861015620002625750805b601f850160051c820191505b8181101562000283578281556001016200026e565b5050505b505050565b81516001600160401b03811115620002a857620002a8620000ce565b620002c081620002b98454620001fd565b8462000239565b602080601f831160018114620002f85760008415620002df5750858301515b600019600386901b1c1916600185901b17855562000283565b600085815260208120601f198616915b82811015620003295788860151825594840194600190910190840162000308565b5085821015620003485787850151600019600388901b60f8161c191681555b5050505050600190811b01905550565b610c5280620003686000396000f3fe608060405234801561001057600080fd5b50600436106101005760003560e01c8063715018a611610097578063a457c2d711610066578063a457c2d714610209578063a9059cbb1461021c578063dd62ed3e1461022f578063f2fde38b1461024257600080fd5b8063715018a6146101cb5780638da5cb5b146101d357806395d89b41146101ee5780639dc29fac146101f657600080fd5b8063313ce567116100d3578063313ce5671461016b578063395093511461017a57806340c10f191461018d57806370a08231146101a257600080fd5b806306fdde0314610105578063095ea7b31461012357806318160ddd1461014657806323b872dd14610158575b600080fd5b61010d610255565b60405161011a9190610a9c565b60405180910390f35b610136610131366004610b06565b6102e7565b604051901515815260200161011a565b6002545b60405190815260200161011a565b610136610166366004610b30565b610301565b6040516012815260200161011a565b610136610188366004610b06565b610325565b6101a061019b366004610b06565b610347565b005b61014a6101b0366004610b6c565b6001600160a01b031660009081526020819052604090205490565b6101a061035d565b6005546040516001600160a01b03909116815260200161011a565b61010d610371565b6101a0610204366004610b06565b610380565b610136610217366004610b06565b610392565b61013661022a366004610b06565b610412565b61014a61023d366004610b8e565b610420565b6101a0610250366004610b6c565b61044b565b60606003805461026490610bc1565b80601f016020809104026020016040519081016040528092919081815260200182805461029090610bc1565b80156102dd5780601f106102b2576101008083540402835291602001916102dd565b820191906000526020600020905b8154815290600101906020018083116102c057829003601f168201915b5050505050905090565b6000336102f58185856104c4565b60019150505b92915050565b60003361030f8582856105e9565b61031a858585610663565b506001949350505050565b6000336102f58185856103388383610420565b6103429190610bfb565b6104c4565b61034f610807565b6103598282610861565b5050565b610365610807565b61036f6000610920565b565b60606004805461026490610bc1565b610388610807565b6103598282610972565b600033816103a08286610420565b9050838110156104055760405162461bcd60e51b815260206004820152602560248201527f45524332303a2064656372656173656420616c6c6f77616e63652062656c6f77604482015264207a65726f60d81b60648201526084015b60405180910390fd5b61031a82868684036104c4565b6000336102f5818585610663565b6001600160a01b03918216600090815260016020908152604080832093909416825291909152205490565b610453610807565b6001600160a01b0381166104b85760405162461bcd60e51b815260206004820152602660248201527f4f776e61626c653a206e6577206f776e657220697320746865207a65726f206160448201526564647265737360d01b60648201526084016103fc565b6104c181610920565b50565b6001600160a01b0383166105265760405162461bcd60e51b8152602060048201526024808201527f45524332303a20617070726f76652066726f6d20746865207a65726f206164646044820152637265737360e01b60648201526084016103fc565b6001600160a01b0382166105875760405162461bcd60e51b815260206004820152602260248201527f45524332303a20617070726f766520746f20746865207a65726f206164647265604482015261737360f01b60648201526084016103fc565b6001600160a01b0383811660008181526001602090815260408083209487168084529482529182902085905590518481527f8c5be1e5ebec7d5bd14f71427d1e84f3dd0314c0f7b2291e5b200ac8c7c3b92591015b60405180910390a3505050565b60006105f58484610420565b9050600019811461065d57818110156106505760405162461bcd60e51b815260206004820152601d60248201527f45524332303a20696e73756666696369656e7420616c6c6f77616e636500000060448201526064016103fc565b61065d84848484036104c4565b50505050565b6001600160a01b0383166106c75760405162461bcd60e51b815260206004820152602560248201527f45524332303a207472616e736665722066726f6d20746865207a65726f206164604482015264647265737360d81b60648201526084016103fc565b6001600160a01b0382166107295760405162461bcd60e51b815260206004820152602360248201527f45524332303a207472616e7366657220746f20746865207a65726f206164647260448201526265737360e81b60648201526084016103fc565b6001600160a01b038316600090815260208190526040902054818110156107a15760405162461bcd60e51b815260206004820152602660248201527f45524332303a207472616e7366657220616d6f756e7420657863656564732062604482015265616c616e636560d01b60648201526084016103fc565b6001600160a01b03848116600081815260208181526040808320878703905593871680835291849020805487019055925185815290927fddf252ad1be2c89b69c2b068fc378daa952ba7f163c4a11628f55a4df523b3ef910160405180910390a361065d565b6005546001600160a01b0316331461036f5760405162461bcd60e51b815260206004820181905260248201527f4f776e61626c653a2063616c6c6572206973206e6f7420746865206f776e657260448201526064016103fc565b6001600160a01b0382166108b75760405162461bcd60e51b815260206004820152601f60248201527f45524332303a206d696e7420746f20746865207a65726f20616464726573730060448201526064016103fc565b80600260008282546108c99190610bfb565b90915550506001600160a01b038216600081815260208181526040808320805486019055518481527fddf252ad1be2c89b69c2b068fc378daa952ba7f163c4a11628f55a4df523b3ef910160405180910390a35050565b600580546001600160a01b038381166001600160a01b0319831681179093556040519116919082907f8be0079c531659141344cd1fd0a4f28419497f9722a3daafe3b4186f6b6457e090600090a35050565b6001600160a01b0382166109d25760405162461bcd60e51b815260206004820152602160248201527f45524332303a206275726e2066726f6d20746865207a65726f206164647265736044820152607360f81b60648201526084016103fc565b6001600160a01b03821660009081526020819052604090205481811015610a465760405162461bcd60e51b815260206004820152602260248201527f45524332303a206275726e20616d6f756e7420657863656564732062616c616e604482015261636560f01b60648201526084016103fc565b6001600160a01b0383166000818152602081815260408083208686039055600280548790039055518581529192917fddf252ad1be2c89b69c2b068fc378daa952ba7f163c4a11628f55a4df523b3ef91016105dc565b600060208083528351808285015260005b81811015610ac957858101830151858201604001528201610aad565b506000604082860101526040601f19601f8301168501019250505092915050565b80356001600160a01b0381168114610b0157600080fd5b919050565b60008060408385031215610b1957600080fd5b610b2283610aea565b946020939093013593505050565b600080600060608486031215610b4557600080fd5b610b4e84610aea565b9250610b5c60208501610aea565b9150604084013590509250925092565b600060208284031215610b7e57600080fd5b610b8782610aea565b9392505050565b60008060408385031215610ba157600080fd5b610baa83610aea565b9150610bb860208401610aea565b90509250929050565b600181811c90821680610bd557607f821691505b602082108103610bf557634e487b7160e01b600052602260045260246000fd5b50919050565b808201808211156102fb57634e487b7160e01b600052601160045260246000fdfea26469706673582212200c706ce50f87ecb1d28737732c795aebd82219b4e8dfa56920692d9c81c371a164736f6c63430008110033",
  "linkReferences": {},
  "deployedLinkReferences": {}
}