{
  "_format": "hh-sol-artifact-1",
  "contractName": "CombinedDex",
  "sourceName": "contracts/NFTDex.sol",
  "abi": [
    {
      "inputs": [
        {
          "internalType": "string",
          "name": "_assetTokenName",
          "type": "string"
        },
        {
          "internalType": "string",
          "name": "_assetTokenSymbol",
          "type": "string"
        },
        {
          "internalType": "address payable",
          "name": "_platformFeeAddress",
          "type": "address"
        }
      ],
      "stateMutability": "nonpayable",
      "type": "constructor"
    },
    {
      "anonymous": false,
      "inputs": [
        {
          "indexed": true,
          "internalType": "address",
          "name": "nftContract",
          "type": "address"
        },
        {
          "indexed": true,
          "internalType": "uint256",
          "name": "tokenId",
          "type": "uint256"
        },
        {
          "indexed": true,
          "internalType": "address",
          "name": "owner",
          "type": "address"
        }
      ],
      "name": "NFTLocked",
      "type": "event"
    },
    {
      "anonymous": false,
      "inputs": [
        {
          "indexed": true,
          "internalType": "address",
          "name": "nftContract",
          "type": "address"
        },
        {
          "indexed": true,
          "internalType": "uint256",
          "name": "tokenId",
          "type": "uint256"
        },
        {
          "indexed": true,
          "internalType": "address",
          "name": "owner",
          "type": "address"
        }
      ],
      "name": "NFTUnlocked",
      "type": "event"
    },
    {
      "inputs": [
        {
          "internalType": "uint256",
          "name": "_amount",
          "type": "uint256"
        }
      ],
      "name": "addLiquidity",
      "outputs": [
        {
          "internalType": "uint256",
          "name": "",
          "type": "uint256"
        }
      ],
      "stateMutability": "payable",
      "type": "function"
    },
    {
      "inputs": [],
      "name": "assetToken",
      "outputs": [
        {
          "internalType": "contract AssetToken",
          "name": "",
          "type": "address"
        }
      ],
      "stateMutability": "view",
      "type": "function"
    },
    {
      "inputs": [
        {
          "internalType": "uint256",
          "name": "_main",
          "type": "uint256"
        }
      ],
      "name": "getMainForNativeTokens",
      "outputs": [
        {
          "internalType": "uint256",
          "name": "",
          "type": "uint256"
        }
      ],
      "stateMutability": "view",
      "type": "function"
    },
    {
      "inputs": [
        {
          "internalType": "uint256",
          "name": "_native",
          "type": "uint256"
        }
      ],
      "name": "getNativeForMainTokens",
      "outputs": [
        {
          "internalType": "uint256",
          "name": "",
          "type": "uint256"
        }
      ],
      "stateMutability": "view",
      "type": "function"
    },
    {
      "inputs": [],
      "name": "getTokensInContract",
      "outputs": [
        {
          "internalType": "uint256",
          "name": "",
          "type": "uint256"
        }
      ],
      "stateMutability": "view",
      "type": "function"
    },
    {
      "inputs": [],
      "name": "platformFeeAddress",
      "outputs": [
        {
          "internalType": "address payable",
          "name": "",
          "type": "address"
        }
      ],
      "stateMutability": "view",
      "type": "function"
    },
    {
      "inputs": [
        {
          "internalType": "uint256",
          "name": "_amount",
          "type": "uint256"
        }
      ],
      "name": "removeLiquidity",
      "outputs": [
        {
          "internalType": "uint256",
          "name": "",
          "type": "uint256"
        },
        {
          "internalType": "uint256",
          "name": "",
          "type": "uint256"
        }
      ],
      "stateMutability": "nonpayable",
      "type": "function"
    },
    {
      "inputs": [],
      "name": "swapMainforNative",
      "outputs": [
        {
          "internalType": "uint256",
          "name": "",
          "type": "uint256"
        }
      ],
      "stateMutability": "payable",
      "type": "function"
    },
    {
      "inputs": [
        {
          "internalType": "uint256",
          "name": "_tokenAmount",
          "type": "uint256"
        }
      ],
      "name": "swapNativeForMain",
      "outputs": [
        {
          "internalType": "uint256",
          "name": "",
          "type": "uint256"
        }
      ],
      "stateMutability": "payable",
      "type": "function"
    },
    {
      "inputs": [],
      "name": "unlockNFT",
      "outputs": [],
      "stateMutability": "nonpayable",
      "type": "function"
    },
    {
      "inputs": [
        {
          "internalType": "uint256",
          "name": "_valuation",
          "type": "uint256"
        },
        {
          "internalType": "uint256",
          "name": "_numFractionalTokens",
          "type": "uint256"
        },
        {
          "internalType": "address",
          "name": "_nftCollectionAddress",
          "type": "address"
        },
        {
          "internalType": "uint256",
          "name": "_tokenId",
          "type": "uint256"
        }
      ],
      "name": "uploadNFT",
      "outputs": [
        {
          "internalType": "bool",
          "name": "",
          "type": "bool"
        }
      ],
      "stateMutability": "nonpayable",
      "type": "function"
    }
  ],
  "bytecode": "0x60806040526005805460ff1916815560075560196008553480156200002357600080fd5b50604051620025bf380380620025bf83398101604081905262000046916200020f565b8282604051620000569062000134565b62000063929190620002ca565b604051809103906000f08015801562000080573d6000803e3d6000fd5b50600080546001600160a01b0319166001600160a01b0392909216918217905560405163095ea7b360e01b8152306004820152600019602482015263095ea7b3906044016020604051808303816000875af1158015620000e4573d6000803e3d6000fd5b505050506040513d601f19601f820116820180604052508101906200010a9190620002fc565b50600980546001600160a01b0319166001600160a01b039290921691909117905550620003279050565b610fba806200160583390190565b634e487b7160e01b600052604160045260246000fd5b60005b83811015620001755781810151838201526020016200015b565b50506000910152565b600082601f8301126200019057600080fd5b81516001600160401b0380821115620001ad57620001ad62000142565b604051601f8301601f19908116603f01168101908282118183101715620001d857620001d862000142565b81604052838152866020858801011115620001f257600080fd5b6200020584602083016020890162000158565b9695505050505050565b6000806000606084860312156200022557600080fd5b83516001600160401b03808211156200023d57600080fd5b6200024b878388016200017e565b945060208601519150808211156200026257600080fd5b5062000271868287016200017e565b604086015190935090506001600160a01b03811681146200029157600080fd5b809150509250925092565b60008151808452620002b681602086016020860162000158565b601f01601f19169290920160200192915050565b604081526000620002df60408301856200029c565b8281036020840152620002f381856200029c565b95945050505050565b6000602082840312156200030f57600080fd5b815180151581146200032057600080fd5b9392505050565b6112ce80620003376000396000f3fe60806040526004361061009c5760003560e01c80636a45e1b1116100645780636a45e1b11461014c57806372568f151461016c5780639c8f9f231461018c578063b2e202c8146101c1578063ed14834f146101d4578063f9d2994b146101f457600080fd5b80631083f761146100a15780633c2f1806146100de57806351c6590a14610101578063599db8bf1461011457806363cfa93814610144575b600080fd5b3480156100ad57600080fd5b506000546100c1906001600160a01b031681565b6040516001600160a01b0390911681526020015b60405180910390f35b3480156100ea57600080fd5b506100f361020b565b6040519081526020016100d5565b6100f361010f36600461112a565b61027d565b34801561012057600080fd5b5061013461012f36600461115b565b6106d0565b60405190151581526020016100d5565b6100f3610986565b34801561015857600080fd5b506100f361016736600461112a565b610b3a565b34801561017857600080fd5b506100f361018736600461112a565b610baa565b34801561019857600080fd5b506101ac6101a736600461112a565b610c06565b604080519283526020830191909152016100d5565b6100f36101cf36600461112a565b610dcf565b3480156101e057600080fd5b506009546100c1906001600160a01b031681565b34801561020057600080fd5b50610209610fa6565b005b600080546040516370a0823160e01b81523060048201526001600160a01b03909116906370a0823190602401602060405180830381865afa158015610254573d6000803e3d6000fd5b505050506040513d601f19601f82011682018060405250810190610278919061119a565b905090565b60055460009060ff1615156001146102f45760405162461bcd60e51b815260206004820152602f60248201527f5468697320636f6e747261637420686173206e6f206c6f636b6564204e46542060448201526e18995b1bdb99da5b99c81d1bc81a5d608a1b60648201526084015b60405180910390fd5b600034116103505760405162461bcd60e51b815260206004820152602360248201527f4554482076616c7565206d7573742062652067726561746572207468616e207a60448201526265726f60e81b60648201526084016102eb565b6000478161035c61020b565b90508060000361044a576000546040516323b872dd60e01b81526001600160a01b03909116906323b872dd9061039a90339030908a906004016111b3565b6020604051808303816000875af11580156103b9573d6000803e3d6000fd5b505050506040513d601f19601f820116820180604052508101906103dd91906111d7565b506000546040516340c10f1960e01b8152336004820152346024820181905294506001600160a01b03909116906340c10f1990604401600060405180830381600087803b15801561042d57600080fd5b505af1158015610441573d6000803e3d6000fd5b505050506106c7565b60006104563484611216565b9050600081116104d95760405162461bcd60e51b815260206004820152604260248201527f526573657276656420455448206d75737420626520677265617465722074686160448201527f6e207a65726f206166746572207375627472616374696e67206d73672e76616c606482015261756560f01b608482015260a4016102eb565b806104e4348461122f565b6104ee9190611246565b8610156105635760405162461bcd60e51b815260206004820152603c60248201527f416d6f756e74206f6620746f6b656e7320206973206c657373207468616e207460448201527f6865207265717569726564206e756d626572206f6620746f6b656e730000000060648201526084016102eb565b6000546040516323b872dd60e01b81526001600160a01b03909116906323b872dd9061059790339030908b906004016111b3565b6020604051808303816000875af11580156105b6573d6000803e3d6000fd5b505050506040513d601f19601f820116820180604052508101906105da91906111d7565b5060008054604080516318160ddd60e01b8152905184926001600160a01b0316916318160ddd9160048083019260209291908290030181865afa158015610625573d6000803e3d6000fd5b505050506040513d601f19601f82011682018060405250810190610649919061119a565b610653903461122f565b61065d9190611246565b6000546040516340c10f1960e01b8152336004820152602481018390529192506001600160a01b0316906340c10f1990604401600060405180830381600087803b1580156106aa57600080fd5b505af11580156106be573d6000803e3d6000fd5b50929650505050505b50909392505050565b60055460009060ff16156107365760405162461bcd60e51b815260206004820152602760248201527f416c726561647920616e204e4654206173736f636961746564207769746820746044820152660d0d2e640888ab60cb1b60648201526084016102eb565b6000851161074357600080fd5b600a841161075057600080fd5b6040516331a9108f60e11b81526004810183905283906001600160a01b03821690636352211e90602401602060405180830381865afa158015610797573d6000803e3d6000fd5b505050506040513d601f19601f820116820180604052508101906107bb9190611268565b6001600160a01b0316336001600160a01b03161461081b5760405162461bcd60e51b815260206004820152601c60248201527f206973206e6f7420746865206f776e6572206f6620746865206e66740000000060448201526064016102eb565b6040516323b872dd60e01b81526001600160a01b038216906323b872dd9061084b903390309088906004016111b3565b600060405180830381600087803b15801561086557600080fd5b505af1158015610879573d6000803e3d6000fd5b5050604080516080810182526001600160a01b03881680825233602083018190528284018990524260608401819052600180546001600160a01b03199081168517909155600280549091168317905560038a905560045592519194509192508691907f752b2c9518fc8eb87040bfee66a1505abc19b0e25705097035ac1490021631ad90600090a46000546040516340c10f1960e01b8152336004820152602481018890526001600160a01b03909116906340c10f1990604401600060405180830381600087803b15801561094d57600080fd5b505af1158015610961573d6000803e3d6000fd5b505050600688905550506005805460ff19166001908117909155915050949350505050565b60008061271060075460085461271061099f9190611216565b6109a99190611216565b6109b3903461122f565b6109bd9190611246565b905060006109cb8247611216565b905060006109d761020b565b905060006109e58484611285565b6109ef838661122f565b6109f99190611246565b9050808211610a4a5760405162461bcd60e51b815260206004820181905260248201527f4e6f7420656e6f75676820746f6b656e7320696e20746865207265736572766560448201526064016102eb565b60005460405163a9059cbb60e01b8152336004820152602481018390526001600160a01b039091169063a9059cbb906044016020604051808303816000875af1158015610a9b573d6000803e3d6000fd5b505050506040513d601f19601f82011682018060405250810190610abf91906111d7565b50600061271060075434610ad3919061122f565b610add9190611246565b6009549091506001600160a01b0316610af557600080fd5b6009546040516001600160a01b039091169082156108fc029083906000818181858888f19350505050158015610b2f573d6000803e3d6000fd5b509095945050505050565b60004781610b4661020b565b90506000610b548583611285565b610b5e868561122f565b610b689190611246565b90506000612710600754600854612710610b829190611216565b610b8c9190611285565b610b96908461122f565b610ba09190611246565b9695505050505050565b600080612710600754600854612710610bc39190611216565b610bcd9190611216565b610bd7908561122f565b610be19190611246565b9050476000610bee61020b565b90506000610bfc8484611285565b610b96838661122f565b6000804781610c1361020b565b905060008060009054906101000a90046001600160a01b03166001600160a01b03166318160ddd6040518163ffffffff1660e01b8152600401602060405180830381865afa158015610c69573d6000803e3d6000fd5b505050506040513d601f19601f82011682018060405250810190610c8d919061119a565b610c97848861122f565b610ca19190611246565b9050600083610cb0838561122f565b610cba9190611246565b600054604051632770a7eb60e21b8152336004820152602481018a90529192506001600160a01b031690639dc29fac90604401600060405180830381600087803b158015610d0757600080fd5b505af1158015610d1b573d6000803e3d6000fd5b505060005460405163a9059cbb60e01b8152336004820152602481018590526001600160a01b03909116925063a9059cbb91506044016020604051808303816000875af1158015610d70573d6000803e3d6000fd5b505050506040513d601f19601f82011682018060405250810190610d9491906111d7565b50604051339083156108fc029084906000818181858888f19350505050158015610dc2573d6000803e3d6000fd5b5090969095509350505050565b60004781610ddb61020b565b90506000610de98583611285565b610df3868561122f565b610dfd9190611246565b6000546040516323b872dd60e01b81529192506001600160a01b0316906323b872dd90610e3290339030908a906004016111b3565b6020604051808303816000875af1158015610e51573d6000803e3d6000fd5b505050506040513d601f19601f82011682018060405250810190610e7591906111d7565b506000612710600754600854612710610e8e9190611216565b610e989190611285565b610ea2908461122f565b610eac9190611246565b9050808411610efd5760405162461bcd60e51b815260206004820152601d60248201527f4e6f7420656e6f7567682045544820696e20746865207265736572766500000060448201526064016102eb565b604051339082156108fc029083906000818181858888f19350505050158015610f2a573d6000803e3d6000fd5b50600061271060075484610f3e919061122f565b610f489190611246565b6009549091506001600160a01b0316610f6057600080fd5b6009546040516001600160a01b039091169082156108fc029083906000818181858888f19350505050158015610f9a573d6000803e3d6000fd5b50919695505050505050565b60055460ff16610fec5760405162461bcd60e51b8152602060048201526011602482015270139195081a5cc81b9bdd081b1bd8dad959607a1b60448201526064016102eb565b6002546001600160a01b031633146110515760405162461bcd60e51b815260206004820152602260248201527f4f6e6c7920746865206f776e65722063616e20756e6c6f636b2074686973204e604482015261119560f21b60648201526084016102eb565b6001546003546040516323b872dd60e01b81526001600160a01b039092169182916323b872dd916110899130913391906004016111b3565b600060405180830381600087803b1580156110a357600080fd5b505af11580156110b7573d6000803e3d6000fd5b50506005805460ff1916905550506003546001546040513392916001600160a01b0316907fc82027111cdc25a13287e45aaad5b7c1b91e77bb72aa2a8cc6eb098f2982248790600090a450600180546001600160a01b031990811690915560028054909116905560006003819055600455565b60006020828403121561113c57600080fd5b5035919050565b6001600160a01b038116811461115857600080fd5b50565b6000806000806080858703121561117157600080fd5b8435935060208501359250604085013561118a81611143565b9396929550929360600135925050565b6000602082840312156111ac57600080fd5b5051919050565b6001600160a01b039384168152919092166020820152604081019190915260600190565b6000602082840312156111e957600080fd5b815180151581146111f957600080fd5b9392505050565b634e487b7160e01b600052601160045260246000fd5b8181038181111561122957611229611200565b92915050565b808202811582820484141761122957611229611200565b60008261126357634e487b7160e01b600052601260045260246000fd5b500490565b60006020828403121561127a57600080fd5b81516111f981611143565b808201808211156112295761122961120056fea26469706673582212207777c13688ea8525b1431b70f22aebb5a019aaa607c3763410383b54ac61387b64736f6c6343000811003360806040523480156200001157600080fd5b5060405162000fba38038062000fba833981016040819052620000349162000193565b818160036200004483826200028c565b5060046200005382826200028c565b505050620000706200006a6200007860201b60201c565b6200007c565b505062000358565b3390565b600580546001600160a01b038381166001600160a01b0319831681179093556040519116919082907f8be0079c531659141344cd1fd0a4f28419497f9722a3daafe3b4186f6b6457e090600090a35050565b634e487b7160e01b600052604160045260246000fd5b600082601f830112620000f657600080fd5b81516001600160401b0380821115620001135762000113620000ce565b604051601f8301601f19908116603f011681019082821181831017156200013e576200013e620000ce565b816040528381526020925086838588010111156200015b57600080fd5b600091505b838210156200017f578582018301518183018401529082019062000160565b600093810190920192909252949350505050565b60008060408385031215620001a757600080fd5b82516001600160401b0380821115620001bf57600080fd5b620001cd86838701620000e4565b93506020850151915080821115620001e457600080fd5b50620001f385828601620000e4565b9150509250929050565b600181811c908216806200021257607f821691505b6020821081036200023357634e487b7160e01b600052602260045260246000fd5b50919050565b601f8211156200028757600081815260208120601f850160051c81016020861015620002625750805b601f850160051c820191505b8181101562000283578281556001016200026e565b5050505b505050565b81516001600160401b03811115620002a857620002a8620000ce565b620002c081620002b98454620001fd565b8462000239565b602080601f831160018114620002f85760008415620002df5750858301515b600019600386901b1c1916600185901b17855562000283565b600085815260208120601f198616915b82811015620003295788860151825594840194600190910190840162000308565b5085821015620003485787850151600019600388901b60f8161c191681555b5050505050600190811b01905550565b610c5280620003686000396000f3fe608060405234801561001057600080fd5b50600436106101005760003560e01c8063715018a611610097578063a457c2d711610066578063a457c2d714610209578063a9059cbb1461021c578063dd62ed3e1461022f578063f2fde38b1461024257600080fd5b8063715018a6146101cb5780638da5cb5b146101d357806395d89b41146101ee5780639dc29fac146101f657600080fd5b8063313ce567116100d3578063313ce5671461016b578063395093511461017a57806340c10f191461018d57806370a08231146101a257600080fd5b806306fdde0314610105578063095ea7b31461012357806318160ddd1461014657806323b872dd14610158575b600080fd5b61010d610255565b60405161011a9190610a9c565b60405180910390f35b610136610131366004610b06565b6102e7565b604051901515815260200161011a565b6002545b60405190815260200161011a565b610136610166366004610b30565b610301565b6040516012815260200161011a565b610136610188366004610b06565b610325565b6101a061019b366004610b06565b610347565b005b61014a6101b0366004610b6c565b6001600160a01b031660009081526020819052604090205490565b6101a061035d565b6005546040516001600160a01b03909116815260200161011a565b61010d610371565b6101a0610204366004610b06565b610380565b610136610217366004610b06565b610392565b61013661022a366004610b06565b610412565b61014a61023d366004610b8e565b610420565b6101a0610250366004610b6c565b61044b565b60606003805461026490610bc1565b80601f016020809104026020016040519081016040528092919081815260200182805461029090610bc1565b80156102dd5780601f106102b2576101008083540402835291602001916102dd565b820191906000526020600020905b8154815290600101906020018083116102c057829003601f168201915b5050505050905090565b6000336102f58185856104c4565b60019150505b92915050565b60003361030f8582856105e9565b61031a858585610663565b506001949350505050565b6000336102f58185856103388383610420565b6103429190610bfb565b6104c4565b61034f610807565b6103598282610861565b5050565b610365610807565b61036f6000610920565b565b60606004805461026490610bc1565b610388610807565b6103598282610972565b600033816103a08286610420565b9050838110156104055760405162461bcd60e51b815260206004820152602560248201527f45524332303a2064656372656173656420616c6c6f77616e63652062656c6f77604482015264207a65726f60d81b60648201526084015b60405180910390fd5b61031a82868684036104c4565b6000336102f5818585610663565b6001600160a01b03918216600090815260016020908152604080832093909416825291909152205490565b610453610807565b6001600160a01b0381166104b85760405162461bcd60e51b815260206004820152602660248201527f4f776e61626c653a206e6577206f776e657220697320746865207a65726f206160448201526564647265737360d01b60648201526084016103fc565b6104c181610920565b50565b6001600160a01b0383166105265760405162461bcd60e51b8152602060048201526024808201527f45524332303a20617070726f76652066726f6d20746865207a65726f206164646044820152637265737360e01b60648201526084016103fc565b6001600160a01b0382166105875760405162461bcd60e51b815260206004820152602260248201527f45524332303a20617070726f766520746f20746865207a65726f206164647265604482015261737360f01b60648201526084016103fc565b6001600160a01b0383811660008181526001602090815260408083209487168084529482529182902085905590518481527f8c5be1e5ebec7d5bd14f71427d1e84f3dd0314c0f7b2291e5b200ac8c7c3b92591015b60405180910390a3505050565b60006105f58484610420565b9050600019811461065d57818110156106505760405162461bcd60e51b815260206004820152601d60248201527f45524332303a20696e73756666696369656e7420616c6c6f77616e636500000060448201526064016103fc565b61065d84848484036104c4565b50505050565b6001600160a01b0383166106c75760405162461bcd60e51b815260206004820152602560248201527f45524332303a207472616e736665722066726f6d20746865207a65726f206164604482015264647265737360d81b60648201526084016103fc565b6001600160a01b0382166107295760405162461bcd60e51b815260206004820152602360248201527f45524332303a207472616e7366657220746f20746865207a65726f206164647260448201526265737360e81b60648201526084016103fc565b6001600160a01b038316600090815260208190526040902054818110156107a15760405162461bcd60e51b815260206004820152602660248201527f45524332303a207472616e7366657220616d6f756e7420657863656564732062604482015265616c616e636560d01b60648201526084016103fc565b6001600160a01b03848116600081815260208181526040808320878703905593871680835291849020805487019055925185815290927fddf252ad1be2c89b69c2b068fc378daa952ba7f163c4a11628f55a4df523b3ef910160405180910390a361065d565b6005546001600160a01b0316331461036f5760405162461bcd60e51b815260206004820181905260248201527f4f776e61626c653a2063616c6c6572206973206e6f7420746865206f776e657260448201526064016103fc565b6001600160a01b0382166108b75760405162461bcd60e51b815260206004820152601f60248201527f45524332303a206d696e7420746f20746865207a65726f20616464726573730060448201526064016103fc565b80600260008282546108c99190610bfb565b90915550506001600160a01b038216600081815260208181526040808320805486019055518481527fddf252ad1be2c89b69c2b068fc378daa952ba7f163c4a11628f55a4df523b3ef910160405180910390a35050565b600580546001600160a01b038381166001600160a01b0319831681179093556040519116919082907f8be0079c531659141344cd1fd0a4f28419497f9722a3daafe3b4186f6b6457e090600090a35050565b6001600160a01b0382166109d25760405162461bcd60e51b815260206004820152602160248201527f45524332303a206275726e2066726f6d20746865207a65726f206164647265736044820152607360f81b60648201526084016103fc565b6001600160a01b03821660009081526020819052604090205481811015610a465760405162461bcd60e51b815260206004820152602260248201527f45524332303a206275726e20616d6f756e7420657863656564732062616c616e604482015261636560f01b60648201526084016103fc565b6001600160a01b0383166000818152602081815260408083208686039055600280548790039055518581529192917fddf252ad1be2c89b69c2b068fc378daa952ba7f163c4a11628f55a4df523b3ef91016105dc565b600060208083528351808285015260005b81811015610ac957858101830151858201604001528201610aad565b506000604082860101526040601f19601f8301168501019250505092915050565b80356001600160a01b0381168114610b0157600080fd5b919050565b60008060408385031215610b1957600080fd5b610b2283610aea565b946020939093013593505050565b600080600060608486031215610b4557600080fd5b610b4e84610aea565b9250610b5c60208501610aea565b9150604084013590509250925092565b600060208284031215610b7e57600080fd5b610b8782610aea565b9392505050565b60008060408385031215610ba157600080fd5b610baa83610aea565b9150610bb860208401610aea565b90509250929050565b600181811c90821680610bd557607f821691505b602082108103610bf557634e487b7160e01b600052602260045260246000fd5b50919050565b808201808211156102fb57634e487b7160e01b600052601160045260246000fdfea26469706673582212200c706ce50f87ecb1d28737732c795aebd82219b4e8dfa56920692d9c81c371a164736f6c63430008110033",
  "linkReferences": {},
  "deployedLinkReferences": {}
}